{
  "contractName": "Lottery",
  "abi": [
    {
      "inputs": [],
      "stateMutability": "nonpayable",
      "type": "constructor"
    },
    {
      "inputs": [],
      "name": "manager",
      "outputs": [
        {
          "internalType": "address",
          "name": "",
          "type": "address"
        }
      ],
      "stateMutability": "view",
      "type": "function",
      "constant": true
    },
    {
      "inputs": [
        {
          "internalType": "uint256",
          "name": "",
          "type": "uint256"
        }
      ],
      "name": "participants",
      "outputs": [
        {
          "internalType": "address payable",
          "name": "",
          "type": "address"
        }
      ],
      "stateMutability": "view",
      "type": "function",
      "constant": true
    },
    {
      "stateMutability": "payable",
      "type": "receive",
      "payable": true
    },
    {
      "inputs": [],
      "name": "getBalance",
      "outputs": [
        {
          "internalType": "uint256",
          "name": "",
          "type": "uint256"
        }
      ],
      "stateMutability": "view",
      "type": "function",
      "constant": true
    },
    {
      "inputs": [],
      "name": "random",
      "outputs": [
        {
          "internalType": "uint256",
          "name": "",
          "type": "uint256"
        }
      ],
      "stateMutability": "view",
      "type": "function",
      "constant": true
    },
    {
      "inputs": [],
      "name": "selectWinner",
      "outputs": [],
      "stateMutability": "nonpayable",
      "type": "function"
    }
  ],
  "bytecode": "0x608060405234801561001057600080fd5b50336000806101000a81548173ffffffffffffffffffffffffffffffffffffffff021916908373ffffffffffffffffffffffffffffffffffffffff160217905550610737806100606000396000f3fe60806040526004361061004e5760003560e01c806312065fe0146100d257806333a99e04146100fd57806335c1d34914610114578063481c6a75146101515780635ec01e4d1461017c576100cd565b366100cd57670de0b6b3a764000034101561006857600080fd5b6001339080600181540180825580915050600190039060005260206000200160009091909190916101000a81548173ffffffffffffffffffffffffffffffffffffffff021916908373ffffffffffffffffffffffffffffffffffffffff160217905550005b600080fd5b3480156100de57600080fd5b506100e76101a7565b6040516100f491906104d4565b60405180910390f35b34801561010957600080fd5b50610112610208565b005b34801561012057600080fd5b5061013b60048036038101906101369190610520565b610377565b604051610148919061058e565b60405180910390f35b34801561015d57600080fd5b506101666103b6565b60405161017391906105ca565b60405180910390f35b34801561018857600080fd5b506101916103da565b60405161019e91906104d4565b60405180910390f35b60008060009054906101000a900473ffffffffffffffffffffffffffffffffffffffff1673ffffffffffffffffffffffffffffffffffffffff163373ffffffffffffffffffffffffffffffffffffffff161461020257600080fd5b47905090565b60008054906101000a900473ffffffffffffffffffffffffffffffffffffffff1673ffffffffffffffffffffffffffffffffffffffff163373ffffffffffffffffffffffffffffffffffffffff161461026057600080fd5b600061026a6103da565b905060006001805490508261027f9190610614565b905060006001828154811061029757610296610645565b5b9060005260206000200160009054906101000a900473ffffffffffffffffffffffffffffffffffffffff1690508073ffffffffffffffffffffffffffffffffffffffff166108fc6102e66101a7565b9081150290604051600060405180830381858888f19350505050158015610311573d6000803e3d6000fd5b50600067ffffffffffffffff81111561032d5761032c610674565b5b60405190808252806020026020018201604052801561035b5781602001602082028036833780820191505090505b5060019080519060200190610371929190610414565b50505050565b6001818154811061038757600080fd5b906000526020600020016000915054906101000a900473ffffffffffffffffffffffffffffffffffffffff1681565b60008054906101000a900473ffffffffffffffffffffffffffffffffffffffff1681565b600044426001805490506040516020016103f6939291906106c4565b6040516020818303038152906040528051906020012060001c905090565b82805482825590600052602060002090810192821561048d579160200282015b8281111561048c5782518260006101000a81548173ffffffffffffffffffffffffffffffffffffffff021916908373ffffffffffffffffffffffffffffffffffffffff16021790555091602001919060010190610434565b5b50905061049a919061049e565b5090565b5b808211156104b757600081600090555060010161049f565b5090565b6000819050919050565b6104ce816104bb565b82525050565b60006020820190506104e960008301846104c5565b92915050565b600080fd5b6104fd816104bb565b811461050857600080fd5b50565b60008135905061051a816104f4565b92915050565b600060208284031215610536576105356104ef565b5b60006105448482850161050b565b91505092915050565b600073ffffffffffffffffffffffffffffffffffffffff82169050919050565b60006105788261054d565b9050919050565b6105888161056d565b82525050565b60006020820190506105a3600083018461057f565b92915050565b60006105b48261054d565b9050919050565b6105c4816105a9565b82525050565b60006020820190506105df60008301846105bb565b92915050565b7f4e487b7100000000000000000000000000000000000000000000000000000000600052601260045260246000fd5b600061061f826104bb565b915061062a836104bb565b92508261063a576106396105e5565b5b828206905092915050565b7f4e487b7100000000000000000000000000000000000000000000000000000000600052603260045260246000fd5b7f4e487b7100000000000000000000000000000000000000000000000000000000600052604160045260246000fd5b6000819050919050565b6106be6106b9826104bb565b6106a3565b82525050565b60006106d082866106ad565b6020820191506106e082856106ad565b6020820191506106f082846106ad565b60208201915081905094935050505056fea2646970667358221220d34549bc7f55c04f99f2a816d82c4b1fd1ca63142b89813d43ba29573e70463164736f6c634300080a0033",
  "immutableReferences": {},
  "source": "// SPDX-License-Identifier: MIT\r\n\r\npragma solidity ^0.8.10;\r\n\r\ncontract Lottery{\r\n    address public manager;\r\n    address payable[] public participants;\r\n\r\n    constructor(){\r\n        manager=msg.sender;\r\n    }\r\n\r\n    receive() payable external{\r\n        require(msg.value>=1 ether);\r\n        participants.push(payable(msg.sender));\r\n    }\r\n\r\n    function getBalance() public view returns(uint){\r\n        require(msg.sender==manager);\r\n        return address(this).balance;\r\n    }\r\n\r\n    function random() public view returns(uint){\r\n       return uint(keccak256(abi.encodePacked(block.difficulty,block.timestamp,participants.length)));\r\n    }\r\n\r\n    function selectWinner() public {\r\n        require(msg.sender==manager);\r\n        uint num=random();\r\n        uint index= num%participants.length;\r\n        address payable winner=participants[index];\r\n        winner.transfer(getBalance()); //transfering winning amount into winner account\r\n        participants=new address payable[](0);\r\n    }\r\n\r\n}",
  "sourcePath": "C:\\Users\\tusha\\Desktop\\Lottery-dapp\\contracts\\Lottery.sol",
  "compiler": {
    "name": "solc",
    "version": "0.8.10+commit.fc410830.Emscripten.clang"
  },
  "schemaVersion": "3.4.3",
  "updatedAt": "2021-12-02T05:27:30.234Z",
  "networkType": "ethereum",
  "devdoc": {
    "kind": "dev",
    "methods": {},
    "version": 1
  },
  "userdoc": {
    "kind": "user",
    "methods": {},
    "version": 1
  }
}